{
  "abi": [
    {
      "type": "constructor",
      "inputs": [],
      "stateMutability": "nonpayable"
    },
    {
      "type": "function",
      "name": "balances",
      "inputs": [
        {
          "name": "",
          "type": "address",
          "internalType": "address"
        }
      ],
      "outputs": [
        {
          "name": "",
          "type": "uint256",
          "internalType": "uint256"
        }
      ],
      "stateMutability": "view"
    },
    {
      "type": "function",
      "name": "deposit",
      "inputs": [],
      "outputs": [],
      "stateMutability": "payable"
    },
    {
      "type": "function",
      "name": "fundHouse",
      "inputs": [],
      "outputs": [],
      "stateMutability": "payable"
    },
    {
      "type": "function",
      "name": "getBalance",
      "inputs": [
        {
          "name": "_user",
          "type": "address",
          "internalType": "address"
        }
      ],
      "outputs": [
        {
          "name": "",
          "type": "uint256",
          "internalType": "uint256"
        }
      ],
      "stateMutability": "view"
    },
    {
      "type": "function",
      "name": "houseBankroll",
      "inputs": [],
      "outputs": [
        {
          "name": "",
          "type": "uint256",
          "internalType": "uint256"
        }
      ],
      "stateMutability": "view"
    },
    {
      "type": "function",
      "name": "owner",
      "inputs": [],
      "outputs": [
        {
          "name": "",
          "type": "address",
          "internalType": "address"
        }
      ],
      "stateMutability": "view"
    },
    {
      "type": "function",
      "name": "settleBet",
      "inputs": [
        {
          "name": "player",
          "type": "address",
          "internalType": "address"
        },
        {
          "name": "betAmount",
          "type": "uint256",
          "internalType": "uint256"
        },
        {
          "name": "playerWon",
          "type": "bool",
          "internalType": "bool"
        },
        {
          "name": "totalPayout",
          "type": "uint256",
          "internalType": "uint256"
        }
      ],
      "outputs": [],
      "stateMutability": "nonpayable"
    },
    {
      "type": "function",
      "name": "withdraw",
      "inputs": [
        {
          "name": "_amount",
          "type": "uint256",
          "internalType": "uint256"
        }
      ],
      "outputs": [],
      "stateMutability": "nonpayable"
    },
    {
      "type": "function",
      "name": "withdrawHouseProfits",
      "inputs": [
        {
          "name": "_amount",
          "type": "uint256",
          "internalType": "uint256"
        }
      ],
      "outputs": [],
      "stateMutability": "nonpayable"
    },
    {
      "type": "event",
      "name": "BetSettled",
      "inputs": [
        {
          "name": "player",
          "type": "address",
          "indexed": true,
          "internalType": "address"
        },
        {
          "name": "betAmount",
          "type": "uint256",
          "indexed": false,
          "internalType": "uint256"
        },
        {
          "name": "playerWon",
          "type": "bool",
          "indexed": false,
          "internalType": "bool"
        },
        {
          "name": "payout",
          "type": "uint256",
          "indexed": false,
          "internalType": "uint256"
        }
      ],
      "anonymous": false
    },
    {
      "type": "event",
      "name": "Deposit",
      "inputs": [
        {
          "name": "user",
          "type": "address",
          "indexed": true,
          "internalType": "address"
        },
        {
          "name": "amount",
          "type": "uint256",
          "indexed": false,
          "internalType": "uint256"
        }
      ],
      "anonymous": false
    },
    {
      "type": "event",
      "name": "Withdrawal",
      "inputs": [
        {
          "name": "user",
          "type": "address",
          "indexed": true,
          "internalType": "address"
        },
        {
          "name": "amount",
          "type": "uint256",
          "indexed": false,
          "internalType": "uint256"
        }
      ],
      "anonymous": false
    }
  ],
  "bytecode": {
    "object": "0x6080604052348015600e575f5ffd5b505f80546001600160a01b031916331790556107dc8061002d5f395ff3fe608060405260043610610084575f3560e01c8063aaf6e0d511610057578063aaf6e0d514610125578063cf57c5f01461013a578063d0e30db014610159578063d148fcfb14610161578063f8b2cb4f14610180575f5ffd5b806327e235e3146100885780632e1a7d4d146100c65780636afbb01b146100e75780638da5cb5b146100ef575b5f5ffd5b348015610093575f5ffd5b506100b36100a23660046106b1565b60016020525f908152604090205481565b6040519081526020015b60405180910390f35b3480156100d1575f5ffd5b506100e56100e03660046106d1565b6101b4565b005b6100e56102fc565b3480156100fa575f5ffd5b505f5461010d906001600160a01b031681565b6040516001600160a01b0390911681526020016100bd565b348015610130575f5ffd5b506100b360025481565b348015610145575f5ffd5b506100e56101543660046106e8565b61033d565b6100e5610554565b34801561016c575f5ffd5b506100e561017b3660046106d1565b6105ec565b34801561018b575f5ffd5b506100b361019a3660046106b1565b6001600160a01b03165f9081526001602052604090205490565b335f9081526001602052604090205481111561020e5760405162461bcd60e51b8152602060048201526014602482015273496e73756666696369656e742062616c616e636560601b60448201526064015b60405180910390fd5b335f908152600160205260408120805483929061022c908490610743565b909155505060405181815233907f7fcf532c15f0a6db0bd6d0e038bea71d30d808c7d98cb3bf7268a95bf5081b659060200160405180910390a25f336001600160a01b0316826040515b5f6040518083038185875af1925050503d805f81146102b0576040519150601f19603f3d011682016040523d82523d5f602084013e6102b5565b606091505b50509050806102f85760405162461bcd60e51b815260206004820152600f60248201526e151c985b9cd9995c8819985a5b1959608a1b6044820152606401610205565b5050565b5f546001600160a01b031633146103255760405162461bcd60e51b81526004016102059061075c565b3460025f8282546103369190610793565b9091555050565b5f546001600160a01b031633146103665760405162461bcd60e51b81526004016102059061075c565b6001600160a01b0384165f908152600160205260409020548311156103cd5760405162461bcd60e51b815260206004820152601b60248201527f496e73756666696369656e7420706c617965722062616c616e636500000000006044820152606401610205565b81156104bc575f6103de8483610743565b90508060025410156104275760405162461bcd60e51b8152602060048201526012602482015271486f7573652069732062616e6b727570742160701b6044820152606401610205565b8060025f8282546104389190610743565b90915550506001600160a01b0385165f9081526001602052604081208054839290610464908490610793565b90915550506040805185815284151560208201529081018390526001600160a01b038616907f8bfb119fabaf3e781376eb32390e502a158b542f198e1fc7c411f5cf1fdd34859060600160405180910390a25061054e565b6001600160a01b0384165f90815260016020526040812080548592906104e3908490610743565b925050819055508260025f8282546104fb9190610793565b90915550506040805184815283151560208201529081018290526001600160a01b038516907f8bfb119fabaf3e781376eb32390e502a158b542f198e1fc7c411f5cf1fdd34859060600160405180910390a25b50505050565b5f34116105925760405162461bcd60e51b815260206004820152600c60248201526b16995c9bc819195c1bdcda5d60a21b6044820152606401610205565b335f90815260016020526040812080543492906105b0908490610793565b909155505060405134815233907fe1fffcc4923d04b559f4d29a8bfc6cda04eb5b0d3c460751c2402c5c5cc9109c9060200160405180910390a2565b5f546001600160a01b031633146106155760405162461bcd60e51b81526004016102059061075c565b8060025410156106675760405162461bcd60e51b815260206004820152601860248201527f496e73756666696369656e7420686f7573652066756e647300000000000000006044820152606401610205565b8060025f8282546106789190610743565b90915550505f80546040516001600160a01b03909116908390610276565b80356001600160a01b03811681146106ac575f5ffd5b919050565b5f602082840312156106c1575f5ffd5b6106ca82610696565b9392505050565b5f602082840312156106e1575f5ffd5b5035919050565b5f5f5f5f608085870312156106fb575f5ffd5b61070485610696565b9350602085013592506040850135801515811461071f575f5ffd5b9396929550929360600135925050565b634e487b7160e01b5f52601160045260245ffd5b818103818111156107565761075661072f565b92915050565b6020808252601c908201527f4f6e6c792074686520486f7573652063616e2063616c6c207468697300000000604082015260600190565b808201808211156107565761075661072f56fea2646970667358221220a39a3e7a6a47cae4a468a817d61a6f4efce69ac364f544bb1f7d2a16d2ad67ed64736f6c63430008210033",
    "linkReferences": {}
  },
  "methodIdentifiers": {
    "balances(address)": "27e235e3",
    "deposit()": "d0e30db0",
    "fundHouse()": "6afbb01b",
    "getBalance(address)": "f8b2cb4f",
    "houseBankroll()": "aaf6e0d5",
    "owner()": "8da5cb5b",
    "settleBet(address,uint256,bool,uint256)": "cf57c5f0",
    "withdraw(uint256)": "2e1a7d4d",
    "withdrawHouseProfits(uint256)": "d148fcfb"
  },
  "id": 31
}