{"abi":[{"type":"constructor","inputs":[],"stateMutability":"nonpayable"},{"type":"function","name":"balances","inputs":[{"name":"","type":"address","internalType":"address"}],"outputs":[{"name":"","type":"uint256","internalType":"uint256"}],"stateMutability":"view"},{"type":"function","name":"deposit","inputs":[],"outputs":[],"stateMutability":"payable"},{"type":"function","name":"fundHouse","inputs":[],"outputs":[],"stateMutability":"payable"},{"type":"function","name":"getBalance","inputs":[{"name":"_user","type":"address","internalType":"address"}],"outputs":[{"name":"","type":"uint256","internalType":"uint256"}],"stateMutability":"view"},{"type":"function","name":"houseBankroll","inputs":[],"outputs":[{"name":"","type":"uint256","internalType":"uint256"}],"stateMutability":"view"},{"type":"function","name":"owner","inputs":[],"outputs":[{"name":"","type":"address","internalType":"address"}],"stateMutability":"view"},{"type":"function","name":"settleBet","inputs":[{"name":"player","type":"address","internalType":"address"},{"name":"betAmount","type":"uint256","internalType":"uint256"},{"name":"playerWon","type":"bool","internalType":"bool"},{"name":"totalPayout","type":"uint256","internalType":"uint256"}],"outputs":[],"stateMutability":"nonpayable"},{"type":"function","name":"withdraw","inputs":[{"name":"_amount","type":"uint256","internalType":"uint256"}],"outputs":[],"stateMutability":"nonpayable"},{"type":"function","name":"withdrawHouseProfits","inputs":[{"name":"_amount","type":"uint256","internalType":"uint256"}],"outputs":[],"stateMutability":"nonpayable"}],"bytecode":{"object":"0x6080604052348015600e575f5ffd5b505f80546001600160a01b031916331790556106cc8061002d5f395ff3fe608060405260043610610084575f3560e01c8063aaf6e0d511610057578063aaf6e0d514610125578063cf57c5f01461013a578063d0e30db014610159578063d148fcfb14610161578063f8b2cb4f14610180575f5ffd5b806327e235e3146100885780632e1a7d4d146100c65780636afbb01b146100e75780638da5cb5b146100ef575b5f5ffd5b348015610093575f5ffd5b506100b36100a23660046105a1565b60016020525f908152604090205481565b6040519081526020015b60405180910390f35b3480156100d1575f5ffd5b506100e56100e03660046105c1565b6101b4565b005b6100e56102c1565b3480156100fa575f5ffd5b505f5461010d906001600160a01b031681565b6040516001600160a01b0390911681526020016100bd565b348015610130575f5ffd5b506100b360025481565b348015610145575f5ffd5b506100e56101543660046105d8565b610302565b6100e5610480565b34801561016c575f5ffd5b506100e561017b3660046105c1565b6104dc565b34801561018b575f5ffd5b506100b361019a3660046105a1565b6001600160a01b03165f9081526001602052604090205490565b335f9081526001602052604090205481111561020e5760405162461bcd60e51b8152602060048201526014602482015273496e73756666696369656e742062616c616e636560601b60448201526064015b60405180910390fd5b335f908152600160205260408120805483929061022c908490610633565b90915550506040515f90339083905b5f6040518083038185875af1925050503d805f8114610275576040519150601f19603f3d011682016040523d82523d5f602084013e61027a565b606091505b50509050806102bd5760405162461bcd60e51b815260206004820152600f60248201526e151c985b9cd9995c8819985a5b1959608a1b6044820152606401610205565b5050565b5f546001600160a01b031633146102ea5760405162461bcd60e51b81526004016102059061064c565b3460025f8282546102fb9190610683565b9091555050565b5f546001600160a01b0316331461032b5760405162461bcd60e51b81526004016102059061064c565b6001600160a01b0384165f908152600160205260409020548311156103925760405162461bcd60e51b815260206004820152601b60248201527f496e73756666696369656e7420706c617965722062616c616e636500000000006044820152606401610205565b8115610435575f6103a38483610633565b90508060025410156103ec5760405162461bcd60e51b8152602060048201526012602482015271486f7573652069732062616e6b727570742160701b6044820152606401610205565b8060025f8282546103fd9190610633565b90915550506001600160a01b0385165f9081526001602052604081208054839290610429908490610683565b9091555061047a915050565b6001600160a01b0384165f908152600160205260408120805485929061045c908490610633565b925050819055508260025f8282546104749190610683565b90915550505b50505050565b5f34116104be5760405162461bcd60e51b815260206004820152600c60248201526b16995c9bc819195c1bdcda5d60a21b6044820152606401610205565b335f90815260016020526040812080543492906102fb908490610683565b5f546001600160a01b031633146105055760405162461bcd60e51b81526004016102059061064c565b8060025410156105575760405162461bcd60e51b815260206004820152601860248201527f496e73756666696369656e7420686f7573652066756e647300000000000000006044820152606401610205565b8060025f8282546105689190610633565b90915550505f80546040516001600160a01b0390911690839061023b565b80356001600160a01b038116811461059c575f5ffd5b919050565b5f602082840312156105b1575f5ffd5b6105ba82610586565b9392505050565b5f602082840312156105d1575f5ffd5b5035919050565b5f5f5f5f608085870312156105eb575f5ffd5b6105f485610586565b9350602085013592506040850135801515811461060f575f5ffd5b9396929550929360600135925050565b634e487b7160e01b5f52601160045260245ffd5b818103818111156106465761064661061f565b92915050565b6020808252601c908201527f4f6e6c792074686520486f7573652063616e2063616c6c207468697300000000604082015260600190565b808201808211156106465761064661061f56fea26469706673582212206c4bd39230df95454e282af6ca777f6ff1254c560c7942c66bd141946752772864736f6c63430008210033","linkReferences":{}},"methodIdentifiers":{"balances(address)":"27e235e3","deposit()":"d0e30db0","fundHouse()":"6afbb01b","getBalance(address)":"f8b2cb4f","houseBankroll()":"aaf6e0d5","owner()":"8da5cb5b","settleBet(address,uint256,bool,uint256)":"cf57c5f0","withdraw(uint256)":"2e1a7d4d","withdrawHouseProfits(uint256)":"d148fcfb"},"id":31}