{
  "abi": [
    {
      "type": "constructor",
      "inputs": [
        {
          "name": "vrfCoordinatorV2Plus",
          "type": "address",
          "internalType": "address"
        },
        {
          "name": "subscriptionId",
          "type": "uint256",
          "internalType": "uint256"
        },
        {
          "name": "keyHash",
          "type": "bytes32",
          "internalType": "bytes32"
        }
      ],
      "stateMutability": "nonpayable"
    },
    {
      "type": "function",
      "name": "acceptOwnership",
      "inputs": [],
      "outputs": [],
      "stateMutability": "nonpayable"
    },
    {
      "type": "function",
      "name": "callbackGasLimit",
      "inputs": [],
      "outputs": [
        {
          "name": "",
          "type": "uint32",
          "internalType": "uint32"
        }
      ],
      "stateMutability": "view"
    },
    {
      "type": "function",
      "name": "latestRandomSeed",
      "inputs": [],
      "outputs": [
        {
          "name": "",
          "type": "uint256",
          "internalType": "uint256"
        }
      ],
      "stateMutability": "view"
    },
    {
      "type": "function",
      "name": "latestRequestId",
      "inputs": [],
      "outputs": [
        {
          "name": "",
          "type": "uint256",
          "internalType": "uint256"
        }
      ],
      "stateMutability": "view"
    },
    {
      "type": "function",
      "name": "numWords",
      "inputs": [],
      "outputs": [
        {
          "name": "",
          "type": "uint32",
          "internalType": "uint32"
        }
      ],
      "stateMutability": "view"
    },
    {
      "type": "function",
      "name": "owner",
      "inputs": [],
      "outputs": [
        {
          "name": "",
          "type": "address",
          "internalType": "address"
        }
      ],
      "stateMutability": "view"
    },
    {
      "type": "function",
      "name": "rawFulfillRandomWords",
      "inputs": [
        {
          "name": "requestId",
          "type": "uint256",
          "internalType": "uint256"
        },
        {
          "name": "randomWords",
          "type": "uint256[]",
          "internalType": "uint256[]"
        }
      ],
      "outputs": [],
      "stateMutability": "nonpayable"
    },
    {
      "type": "function",
      "name": "requestConfirmations",
      "inputs": [],
      "outputs": [
        {
          "name": "",
          "type": "uint16",
          "internalType": "uint16"
        }
      ],
      "stateMutability": "view"
    },
    {
      "type": "function",
      "name": "requestNewSeed",
      "inputs": [],
      "outputs": [
        {
          "name": "",
          "type": "uint256",
          "internalType": "uint256"
        }
      ],
      "stateMutability": "nonpayable"
    },
    {
      "type": "function",
      "name": "s_keyHash",
      "inputs": [],
      "outputs": [
        {
          "name": "",
          "type": "bytes32",
          "internalType": "bytes32"
        }
      ],
      "stateMutability": "view"
    },
    {
      "type": "function",
      "name": "s_subscriptionId",
      "inputs": [],
      "outputs": [
        {
          "name": "",
          "type": "uint256",
          "internalType": "uint256"
        }
      ],
      "stateMutability": "view"
    },
    {
      "type": "function",
      "name": "s_vrfCoordinator",
      "inputs": [],
      "outputs": [
        {
          "name": "",
          "type": "address",
          "internalType": "contract IVRFCoordinatorV2Plus"
        }
      ],
      "stateMutability": "view"
    },
    {
      "type": "function",
      "name": "setCoordinator",
      "inputs": [
        {
          "name": "_vrfCoordinator",
          "type": "address",
          "internalType": "address"
        }
      ],
      "outputs": [],
      "stateMutability": "nonpayable"
    },
    {
      "type": "function",
      "name": "transferOwnership",
      "inputs": [
        {
          "name": "to",
          "type": "address",
          "internalType": "address"
        }
      ],
      "outputs": [],
      "stateMutability": "nonpayable"
    },
    {
      "type": "function",
      "name": "updateCallbackGasLimit",
      "inputs": [
        {
          "name": "newGasLimit",
          "type": "uint32",
          "internalType": "uint32"
        }
      ],
      "outputs": [],
      "stateMutability": "nonpayable"
    },
    {
      "type": "event",
      "name": "CoordinatorSet",
      "inputs": [
        {
          "name": "vrfCoordinator",
          "type": "address",
          "indexed": false,
          "internalType": "address"
        }
      ],
      "anonymous": false
    },
    {
      "type": "event",
      "name": "OwnershipTransferRequested",
      "inputs": [
        {
          "name": "from",
          "type": "address",
          "indexed": true,
          "internalType": "address"
        },
        {
          "name": "to",
          "type": "address",
          "indexed": true,
          "internalType": "address"
        }
      ],
      "anonymous": false
    },
    {
      "type": "event",
      "name": "OwnershipTransferred",
      "inputs": [
        {
          "name": "from",
          "type": "address",
          "indexed": true,
          "internalType": "address"
        },
        {
          "name": "to",
          "type": "address",
          "indexed": true,
          "internalType": "address"
        }
      ],
      "anonymous": false
    },
    {
      "type": "event",
      "name": "SeedGenerated",
      "inputs": [
        {
          "name": "requestId",
          "type": "uint256",
          "indexed": true,
          "internalType": "uint256"
        },
        {
          "name": "randomSeed",
          "type": "uint256",
          "indexed": false,
          "internalType": "uint256"
        }
      ],
      "anonymous": false
    },
    {
      "type": "event",
      "name": "SeedRequested",
      "inputs": [
        {
          "name": "requestId",
          "type": "uint256",
          "indexed": true,
          "internalType": "uint256"
        }
      ],
      "anonymous": false
    },
    {
      "type": "error",
      "name": "OnlyCoordinatorCanFulfill",
      "inputs": [
        {
          "name": "have",
          "type": "address",
          "internalType": "address"
        },
        {
          "name": "want",
          "type": "address",
          "internalType": "address"
        }
      ]
    },
    {
      "type": "error",
      "name": "OnlyOwnerOrCoordinator",
      "inputs": [
        {
          "name": "have",
          "type": "address",
          "internalType": "address"
        },
        {
          "name": "owner",
          "type": "address",
          "internalType": "address"
        },
        {
          "name": "coordinator",
          "type": "address",
          "internalType": "address"
        }
      ]
    },
    {
      "type": "error",
      "name": "ZeroAddress",
      "inputs": []
    }
  ],
  "bytecode": {
    "object": "0x6080604052600580546001600160501b03191666010003000186a0179055348015610028575f5ffd5b50604051610b0f380380610b0f833981016040819052610047916101cd565b8233805f8161009d5760405162461bcd60e51b815260206004820152601860248201527f43616e6e6f7420736574206f776e657220746f207a65726f000000000000000060448201526064015b60405180910390fd5b5f80546001600160a01b0319166001600160a01b03848116919091179091558116156100cc576100cc81610125565b5050506001600160a01b0381166100f65760405163d92e233d60e01b815260040160405180910390fd5b600280546001600160a01b0319166001600160a01b03929092169190911790556003919091556004555061020c565b336001600160a01b0382160361017d5760405162461bcd60e51b815260206004820152601760248201527f43616e6e6f74207472616e7366657220746f2073656c660000000000000000006044820152606401610094565b600180546001600160a01b0319166001600160a01b038381169182179092555f8054604051929316917fed8889f560326eb138920d842192f0eb3dd22b4f139c87a2c57538e05bae12789190a350565b5f5f5f606084860312156101df575f5ffd5b83516001600160a01b03811681146101f5575f5ffd5b602085015160409095015190969495509392505050565b6108f6806102195f395ff3fe608060405234801561000f575f5ffd5b50600436106100f0575f3560e01c80638da5cb5b11610093578063b0e8d08611610063578063b0e8d086146101d0578063b0fb162f146101e3578063bc5f084a1461020c578063f2fde38b14610215575f5ffd5b80638da5cb5b1461017e5780638ea98117146101a25780639eccacf6146101b5578063acf126c1146101c8575f5ffd5b806345bb327b116100ce57806345bb327b1461014a57806379ba5097146101535780637ccfd7fc1461015b5780638ac0002114610175575f5ffd5b80631aa46f59146100f45780631fe543e31461011057806324f7469714610125575b5f5ffd5b6100fd60075481565b6040519081526020015b60405180910390f35b61012361011e366004610748565b610228565b005b6005546101359063ffffffff1681565b60405163ffffffff9091168152602001610107565b6100fd60045481565b61012361027d565b600554610135906601000000000000900463ffffffff1681565b6100fd60035481565b5f546001600160a01b03165b6040516001600160a01b039091168152602001610107565b6101236101b03660046107c2565b610326565b60025461018a906001600160a01b031681565b6100fd610416565b6101236101de3660046107ef565b610530565b6005546101f990640100000000900461ffff1681565b60405161ffff9091168152602001610107565b6100fd60065481565b6101236102233660046107c2565b610554565b6002546001600160a01b0316331461026d5760025460405163073e64fd60e21b81523360048201526001600160a01b0390911660248201526044015b60405180910390fd5b610278838383610568565b505050565b6001546001600160a01b031633146102d05760405162461bcd60e51b815260206004820152601660248201527526bab9ba10313290383937b837b9b2b21037bbb732b960511b6044820152606401610264565b5f8054336001600160a01b0319808316821784556001805490911690556040516001600160a01b0390921692909183917f8be0079c531659141344cd1fd0a4f28419497f9722a3daafe3b4186f6b6457e091a350565b5f546001600160a01b0316331480159061034b57506002546001600160a01b03163314155b1561039b57336103625f546001600160a01b031690565b60025460405163061db9c160e01b81526001600160a01b0393841660048201529183166024830152919091166044820152606401610264565b6001600160a01b0381166103c25760405163d92e233d60e01b815260040160405180910390fd5b600280546001600160a01b0319166001600160a01b0383169081179091556040519081527fd1a6a14209a385a964d036e404cb5cfb71f4000cdb03c9366292430787261be69060200160405180910390a150565b5f61041f6105db565b6002546040805160c081018252600454815260035460208083019190915260055461ffff6401000000008204168385015263ffffffff8082166060850152660100000000000090910416608083015282519081019092525f808352926001600160a01b031691639b1c385e919060a082019061049a9061062f565b8152506040518263ffffffff1660e01b81526004016104b99190610812565b6020604051808303815f875af11580156104d5573d5f5f3e3d5ffd5b505050506040513d601f19601f820116820180604052508101906104f99190610895565b600781905560405190915081907f527cec86acc2aa27c65bc18f9416ecaec4f9f0d70777521ba9608db86268245d905f90a2905090565b6105386105db565b6005805463ffffffff191663ffffffff92909216919091179055565b61055c6105db565b610565816106a0565b50565b81815f81811061057a5761057a6108ac565b602002919091013560065550827f4c41b765be2f20c9501f57b6e2ad4edc664bb5f44b21b5559ca0f987847f222f83835f816105b8576105b86108ac565b905060200201356040516105ce91815260200190565b60405180910390a2505050565b5f546001600160a01b0316331461062d5760405162461bcd60e51b815260206004820152601660248201527527b7363c9031b0b63630b1363290313c9037bbb732b960511b6044820152606401610264565b565b60607f92fd13387c7fe7befbc38d303d6468778fb9731bc4583f17d92989c6fcfdeaaa8260405160240161066891511515815260200190565b60408051601f198184030181529190526020810180516001600160e01b03166001600160e01b03199093169290921790915292915050565b336001600160a01b038216036106f85760405162461bcd60e51b815260206004820152601760248201527f43616e6e6f74207472616e7366657220746f2073656c660000000000000000006044820152606401610264565b600180546001600160a01b0319166001600160a01b038381169182179092555f8054604051929316917fed8889f560326eb138920d842192f0eb3dd22b4f139c87a2c57538e05bae12789190a350565b5f5f5f6040848603121561075a575f5ffd5b83359250602084013567ffffffffffffffff811115610777575f5ffd5b8401601f81018613610787575f5ffd5b803567ffffffffffffffff81111561079d575f5ffd5b8660208260051b84010111156107b1575f5ffd5b939660209190910195509293505050565b5f602082840312156107d2575f5ffd5b81356001600160a01b03811681146107e8575f5ffd5b9392505050565b5f602082840312156107ff575f5ffd5b813563ffffffff811681146107e8575f5ffd5b60208152815160208201526020820151604082015261ffff604083015116606082015263ffffffff606083015116608082015263ffffffff60808301511660a08201525f60a083015160c08084015280518060e0850152806020830161010086015e5f6101008286010152610100601f19601f8301168501019250505092915050565b5f602082840312156108a5575f5ffd5b5051919050565b634e487b7160e01b5f52603260045260245ffdfea2646970667358221220edede4af311d776a3b2ea086f4439100eeb42c2f24276c2f891893724ae517f264736f6c63430008210033",
    "linkReferences": {}
  },
  "methodIdentifiers": {
    "acceptOwnership()": "79ba5097",
    "callbackGasLimit()": "24f74697",
    "latestRandomSeed()": "bc5f084a",
    "latestRequestId()": "1aa46f59",
    "numWords()": "7ccfd7fc",
    "owner()": "8da5cb5b",
    "rawFulfillRandomWords(uint256,uint256[])": "1fe543e3",
    "requestConfirmations()": "b0fb162f",
    "requestNewSeed()": "acf126c1",
    "s_keyHash()": "45bb327b",
    "s_subscriptionId()": "8ac00021",
    "s_vrfCoordinator()": "9eccacf6",
    "setCoordinator(address)": "8ea98117",
    "transferOwnership(address)": "f2fde38b",
    "updateCallbackGasLimit(uint32)": "b0e8d086"
  },
  "id": 30
}